:020000040800F2
:10000000005000209D050008790500087B050008C8
:100010007D0500087F05000881050008000000003C
:100020000000000000000000000000008305000840
:100030008505000800000000870500088905000804
:10004000E5050008E5050008E5050008E5050008E8
:10005000E5050008E5050008E5050008E5050008D8
:10006000E5050008E5050008E5050008E5050008C8
:10007000E5050008E5050008E5050008E5050008B8
:10008000E5050008E5050008E5050008E5050008A8
:100090008D050008E5050008E5050008E5050008F0
:1000A000E5050008E5050008E5050008E505000888
:1000B000E5050008E5050008E5050008E505000878
:1000C000E5050008E5050008E5050008E505000868
:1000D000E5050008E5050008E5050008E505000858
:1000E000E5050008E5050008E5050008000000003A
:1000F0000000000000000000000000000000000000
:0C01000000000000000000005FF808F1A3
:10010C0010B5054C237833B9044B13B10448AFF345
:10011C0000800123237010BD7C0100200000000032
:10012C00403B000808B5034B1BB103490348AFF330
:10013C00008008BD0000000080010020403B00084A
:10014C0000BF70472DE9F04105460C460026DFF84C
:10015C00A080264F444537D1FFF7F2FF2027FFF749
:10016C00EFFF0024FFF7ECFFFFF7EAFF1F4EFFF74E
:10017C00E7FF00224FF48041304600F0E3FCEA0F29
:10018C004FF40051304600F0DDFCFFF7D9FF4FF47F
:10019C008071304600F0D0FC6400012808BF44F0A8
:1001AC00010401224FF48041304600F0CBFC013FAA
:1001BC004FEA4505DBD101224FF400510B4800F00A
:1001CC00C1FC2046BDE8F0814FF48071384600F048
:1001DC00B3FC0128C0D001360CB1B44202D3FFF7F6
:1001EC00AFFFB7E74FF0FF34EBE700BF000C014067
:1001FC00CDAB34126421FFF7A5BF0000F8B50C4657
:10020C000025254F254EBC4234D1FFF799FF082617
:10021C00FFF796FF0024FFF793FFFFF791FF1F4DA9
:10022C00FFF78EFF00224FF48041284600F08AFC35
:10023C0000224FF40051284600F084FCFFF780FFA9
:10024C004FF48071284600F077FC6400012808BF49
:10025C0044F0010401224FF48041284600F072FC66
:10026C00013EDDD101224FF400510C4800F06AFC34
:10027C002046F8BD4FF48071304600F05DFC01283B
:10028C00C3D001350CB1AC4202D3FFF759FFBAE72A
:10029C004FF0FF34ECE700BFCDAB3412000C014043
:1002AC006421FFF7ABBF0000021E18BF01224FF400
:1002BC000071014800F046BC0008014030B595B013
:1002CC00102200210DA803F02DFC142200210DEBAF
:1002DC00020003F027FC1022002101A803F022FCED
:1002EC0001244FF4803302250022CDE90A43CDE9E5
:1002FC0011534FF480130AA80C920E94139301F02F
:10030C00B5FA08B172B6FEE70F23CDE905354FF407
:10031C0080630790CDE90830214605A801F0A2FCC6
:10032C0008B172B6FEE712234FF4804101934FF4EB
:10033C00800301A8CDE9031301F030FD024608B19A
:10034C0072B6FEE74FF0806101F02CFC15B030BDA9
:10035C0080B588B000F066F9FFF7B0FF10220021DD
:10036C000DEB020003F0DEFB524B4FF4DC619A699B
:10037C00514842F020029A619A69022602F020024A
:10038C000192019A9A69002442F004029A619A69D6
:10039C00012502F004020292029A9A694FF48077C6
:1003AC0042F008029A619B69002203F00803039350
:1003BC00039B00F0C7FB002246F2E3013F4800F02C
:1003CC00C1FB0423CDE9043603233B4804A907935E
:1003DC0000F0D6FA0823384804A9CDE90434069471
:1003EC0000F0CEFA4FF4DC63334804A9CDE90435B0
:1003FC00CDE9064600F0C4FA46F2E3032F4804A9FF
:10040C00CDE90435CDE9064600F0BAFA2A4804A92C
:10041C00CDE90476079600F0B3FA284804A9CDE993
:10042C000474069500F0ACFA4023244804A9CDE9E5
:10043C000434069400F0A4FA8023204804A9CDE9E2
:10044C000434069500F09CFA4FF400731B4804A981
:10045C001B4ECDE90434069500F092FA03F0C6F871
:10046C00184B304633604FF46023CDE904440694B6
:10047C00B46034733475F3617460356100F09AF9CB
:10048C0008B172B6FEE7CDE90405069004A9304622
:10049C0000F0ECF808B172B6FEE72A464FF4804142
:1004AC00064800F04FFB2A464FF40051034800F079
:1004BC0049FBFEE70010024000080140000C01401F
:1004CC00BC0300200024014072B6FEE70E4B82B044
:1004DC009A6942F001029A619A6902F00102009253
:1004EC00009ADA6942F08052DA61DB69074A03F05C
:1004FC0080530193019B536823F0E06343F0007336
:10050C00536002B0704700BF001002400000014071
:10051C0010B5044686B01022002102A803F002FB9D
:10052C002268104B9A421BD103F56C439A690E4812
:10053C0042F400729A619A6902A902F40072009264
:10054C00009A9A6942F004029A619B69012203F0B5
:10055C0004030193019B0323CDE9022300F010FA5D
:10056C0006B010BD0024014000080140FEE7FEE784
:10057C00FEE7FEE7FEE770477047704700F064B88F
:10058C00014800F08BBB00BFDC0800207047000066
:10059C000C480D490D4A002302E0D458C4500433D2
:1005AC00C4188C42F9D30A4A0A4C002301E01360A8
:1005BC000432A242FBD3FFF7E9FF03F08FFAFFF7F7
:1005CC00C7FE7047000000207C010020C83B0008DB
:1005DC007C010020C80B0020FEE7000038B50E4B54
:1005EC00054618784FF47A73B3FBF0F30B4A106896
:1005FC00B0FBF3F000F0AEF9044658B90F2D09D852
:10060C00024629464FF0FF3000F064F92046044BB7
:10061C001D6038BD0120FCE7040000200000002014
:10062C0008000020074A08B51368032043F01003A4
:10063C00136000F03DF90F20FFF7D0FFFFF746FFE6
:10064C00002008BD00200240034A044B11681B78AF
:10065C000B441360704700BFEC0300200400002023
:10066C00014B1868704700BFEC030020002373B5E2
:10067C00019390F824300446012B6CD0012380F8B0
:10068C0024304D680268062D086805EB850322D8D6
:10069C001F26556B053B9E4025EA060500FA03F321
:1006AC002B43536309288B6800EB40054FF007017F
:1006BC0029D9D6681E3DA94026EA0101AB400B435F
:1006CC00D360A0F11003012B25D90020002384F85E
:1006DC00243002B070BD0C2D4FF01F0509D8166BDD
:1006EC00233B9D4026EA050500FA03F32B431363D5
:1006FC00D8E7D66A413B9D4026EA050500FA03F38C
:10070C002B43D362CEE71069A94020EA0101AB402C
:10071C000B431361D9E7114B9A4216D193681B0214
:10072C00D3D49368102843F400039360CDD10C4BC1
:10073C000C4A1B68B3FBF2F20A2353430193019B4F
:10074C00002BC2D0019B013BF8E7A36A012043F0C8
:10075C002003A362BAE70220BBE700BF00240140DC
:10076C000000002040420F0038B5036804469A6828
:10077C00D10701D4002038BD9A6822F001029A609A
:10078C00FFF76EFF054623689B68DB07F2D5FFF782
:10079C0067FF401B0228F6D923689B68DA07F2D55D
:1007AC00A36A012043F01003A362E36A43F0010340
:1007BC00E362E0E7F8B5044600286ED0836A23B9FB
:1007CC00C36280F82430FFF7A3FE2046FFF7CCFF6E
:1007DC00A36A13F0100362D1002860D1A26AE56904
:1007EC00616822F4885222F0020242F0020229438C
:1007FC00A568A262227BB5F5807F41EA420137D021
:10080C00012D14BF00274FF48077267D012E06D1D1
:10081C0082BBA269013A47EA423646F40067226875
:10082C00B5F5807F566826F4694646EA0706566099
:10083C0097681D4E06EA070646EA0106966001D047
:10084C00012D02D12369013B1B05D56A25F47005E6
:10085C002B43D3629268154B1340994213D100235A
:10086C00E362A36A23F0030343F00103A362F8BD20
:10087C002F46CAE7A26A42F02002A262E26A42F064
:10088C000102E262CBE7A36A23F0120343F01003E8
:10089C00A362E36A43F00103E3620120E7E7A36A82
:1008AC0043F01003A362F8E7FDF7E1FFFE0E1FFF14
:1008BC0007490302CA6803F4E06322F4E0621204FD
:1008CC00120C134343F0BF6343F40033CB60704707
:1008DC0000ED00E0164B30B5DC68C4F30224C4F123
:1008EC000703251D042B28BF0423062D4FF0FF35CD
:1008FC0098BF002405FA03F388BF033C21EA0303E5
:10090C00A34005FA04F422EA0402002843EA020395
:10091C00ACBF00F16040074A4FEA0313DBB2ABBF38
:10092C0000F5614000F00F0080F80033135430BD27
:10093C0000ED00E014ED00E0002808DB0123420983
:10094C0000F01F0003FA00F0014B43F8220070473F
:10095C0000E100E00138B0F1807F0AD2F021064BB3
:10096C00064A586082F823100020072298601A600B
:10097C0070470120704700BF10E000E000ED00E080
:10098C002DE9F74F00221646644BDFF8A0C1DFF8C3
:10099C00A0E10D6835FA06F402D103B0BDE8F08F82
:1009AC004FF0010808FA06F805EA080438EA0505CC
:1009BC007CD14D68032D07D8013D022D00F28880B3
:1009CC00DFE805F0969BA100122D00F099806FD8FE
:1009DC00112D00F08F80FF2C98BF82464FF00F092D
:1009EC0088BF00F1040A4FEA8605DAF8008088BF58
:1009FC00203D09FA05FB28EA0B0802FA05F548EA3E
:100A0C000505CAF80050D1F804A01AF0805F4DD04B
:100A1C00434F26F00308BD6908F1804845F00105F5
:100A2C00BD61BD6908F5803805F00105019506F03A
:100A3C00030B019D4FEA8B0BD8F8085009FA0BF900
:100A4C0025EA0909374DA84261D005F58065A84211
:100A5C005FD005F58065A8425DD005F58065A8429C
:100A6C000CBF0325042505FA0BF545EA0905C8F862
:100A7C0008501D681AF4803F14BF2543A5431D6020
:100A8C005D681AF4003F14BF2543A5435D609D6863
:100A9C001AF4801F14BF2543A5439D60DD681AF42A
:100AAC00001F14BF2C4325EA0404DC60013670E7F8
:100ABC001D4FBD420CD017D8DFF878904D4507D0AC
:100ACC0009F570294D4503D0A9F580194D4582D102
:100ADC008A68D2B1012A08BFC0F810804FF0080212
:100AEC0018BFC0F8148076E76545F1D07545EEE780
:100AFC00CA6870E7CA6804326DE7CA6808326AE7E8
:100B0C00CA680C3267E7002265E7042263E7002518
:100B1C00A9E70125A7E70225A5E700BF00040140CE
:100B2C0000100240000801400000221000003110AB
:100B3C0000003210000012108368194214BF01200B
:100B4C00002070470AB1016170470904FBE7F0B55A
:100B5C00044687B010B390F8A93203F0FF021BB91A
:100B6C0080F8A82202F088FE032325466E4684F8FE
:100B7C00A93255F8100B01F099F90FCD0FC62B685F
:100B8C00271D3360264697E80E0056F8100B01F02F
:100B9C007DF9054620B1022384F8A93201254CE0E9
:100BAC000146206801F08CF929464FF0010E2825EA
:100BBC000846D4F804C0CAB2944501F101011BD80F
:100BCC00002328251946D8B2844503F1010320D807
:100BDC00EC4635460FCDACE80F002B68CCF8003056
:100BEC0097E80E00206801F06DF901230546E8B185
:100BFC00022284F8A922D1E705FB0243C3E90E00C7
:100C0C0083F829E083F82820DA8683F82B0018640F
:100C1C00D1E705FB0042C2E95E1182F8691182F846
:100C2C00680182F86B11C2F88011CCE784F82400BB
:100C3C00206884F8A93201F003FC284607B0F0BD07
:100C4C0038B590F8A8320446012B10D0012580F855
:100C5C00A852006801F021F92946204602F03DFF18
:100C6C00206801F0EBFB002084F8A80238BD0220BC
:100C7C00FCE710B590F8A8220446012A0BD00122FB
:100C8C0080F8241080F8A822006801F0D1FB002025
:100C9C0084F8A80210BD0220FCE700002DE9F04FFB
:100CAC00044685B0006801F0CDFB000409D5DFF8DF
:100CBC008C99DFF88C892068B0F844301D0400F161
:100CCC00C180206801F0BEFB41050FD5226820468B
:100CDC00B2F8443023F480631B041B0CA2F844309C
:100CEC0002F005FE00212046FFF7C3FF206801F04B
:100CFC00A9FB410408D52268B2F8443023F48043A0
:100D0C001B041B0CA2F84430206801F09BFB8204EE
:100D1C0008D52268B2F8443023F400531B041B0C92
:100D2C00A2F84430206801F08DFBC3041CD5226866
:100D3C002046B2F8403023F004031B041B0CA2F82D
:100D4C004030B2F8403023F008031B041B0CA2F80F
:100D5C00403002F0EFFD2268B2F8443023F48053A7
:100D6C001B041B0CA2F84430206801F06BFB070538
:100D7C0046D568462368064619461A4603F12005EF
:100D8C0032F8047B954226F8027BF9D1B3F8402067
:100D9C0092B242F00102A3F84020B3F8402022F0B6
:100DAC0001021204120CA3F84020B3F8442056059B
:100DBC00FBD5B3F8442022F480621204120CA3F881
:100DCC00442030F8022B21F8042B8D42F9D1B3F8D2
:100DDC004020204692B242F00802A3F84020B3F81B
:100DEC00442022F400621204120CA3F84420B3F83D
:100DFC00402092B242F00402A3F8402002F08AFD97
:100E0C00206801F01FFB82050BD522682046B2F842
:100E1C00443023F400731B041B0CA2F8443002F082
:100E2C0062FD206801F00EFBC30508D52268B2F8FC
:100E3C00443023F480731B041B0CA2F8443005B01F
:100E4C00BDE8F08FB0F84460B1B216F00F0640F078
:100E5C00BD8011F010012DD103889BB203EA090368
:100E6C0043F400430380B0F8503094F828209BB230
:100E7C0003EBC20300EB4300B0F80434E26BC3F3A2
:100E8C00090363641344E363204602F024FD94F8E1
:100E9C002430002B3FF40FAF226C002A7FF40BAFF1
:100EAC0094F82430216843F08003A1F84C3084F886
:100EBC00242000E70588ABB215F4006521D0B0F80A
:100ECC00503094F868219BB203EBC20300EB430350
:100EDC00B3F80C34B4F86E21C3F30903C4F88431AD
:100EEC0004F52C7101F052FE22682046138823F081
:100EFC0070031B051B0D43F08003138002F0DCFC18
:100F0C00D9E61A047FF5D7AE038823F070031B05CE
:100F1C001B0D43F080030380B0F8503094F8682127
:100F2C009BB203EBC20300EB4303B3F80C34C3F3E3
:100F3C000903C4F884318BB1D4F87C1171B1B4F8C5
:100F4C006E2101F023FED4F87C31D4F8842129469B
:100F5C0013442046C4F87C3102F0B4FC21680B88A1
:100F6C001B053FF5A8AEB1F85030D4F878519BB2C0
:100F7C0001F20C40CDB9C25A22F4F8421204120C00
:100F8C00C252C25A92B242F40042C2520B8823F4AB
:100F9C00804323F070031B041B0C83F4405343F475
:100FAC00004343F080030B8085E63E2D06D86A088B
:100FBC00EF0748BF0132920292B2E6E76A09EE06E9
:100FCC0008BF02F1FF3248EA8222F5E730F82630FA
:100FDC001D049FB240F1F880282130F8263001FB27
:100FEC00064123F070031B051B0D43F0800320F812
:100FFC00263091F8743100F58065B3B9B0F85030F3
:10100C0091F868219BB2063303EBC20335F81350F9
:10101C00C5F30905002D00F0BB802B46B1F86E21FD
:10102C00D1F87C1101F0B2FDB2E091F86B3191F87E
:10103C0068C1022B40F08B80B0F8503017F4804A16
:10104C00D1F880214FEACC0B9BB207F0400E40D078
:10105C009B440BF1020B35F81B50C5F30905954267
:10106C0013D90023C1F8803130F82C3023F480439D
:10107C0023F070031B041B0C83F4005343F4004354
:10108C0043F0800320F82C3004E0521BC1F880217F
:10109C00002AE9D0BEF1000F12D0282303FB06432F
:1010AC0093F8682130F8223023F4E04323F07003E6
:1010BC001B041B0C43F4004343F0C00320F8223004
:1010CC00002D65D0282101FB06412B46B1F870217B
:1010DC00A6E75B44063335F81350C5F30905954272
:1010EC0012D9C1F880A130F82C3023F4804323F0BE
:1010FC0070031B041B0C83F4005343F4004343F0B4
:10110C00800320F82C3004E0521BC1F88021002A07
:10111C00E9D0BEF1000F12D1282303FB064393F84C
:10112C00682130F8223023F4E04323F070031B04D1
:10113C001B0C43F4004343F0C00320F822303DB3B2
:10114C00282101FB06412B46B1F8722168E730F8E3
:10115C002C3023F4E04323F070031B041B0C43F4EA
:10116C00004343F0C00320F82C3091F8683130F87C
:10117C002320DB0012F4804FB0F8502092B259D0EB
:10118C000232134435F81350C5F30905002D9CD1D8
:10119C00282171436318D3F884212A44C3F884218D
:1011AC00D3F87C212A44C3F87C21D3F880211AB1CE
:1011BC00D3F878319D4246D2282303FB06432046C0
:1011CC0093F8681102F07EFB38067FF574AD282584
:1011DC00206805FB064530F826309BB203EA09036C
:1011EC0043F4004320F8263095F82B2095F828304E
:1011FC00032A04D01AB1022A3DD1F9053BD4282187
:10120C00B0F8502001FB064792B2023202EBC30346
:10121C0000EB4303B3F800E4D7F840C0CEF3090E5B
:10122C00F44517D800233B64204695F8281002F0AB
:10123C0052FB40E50632134435F81350C5F309054B
:10124C00002DA5D07FE701F5B4712068214401F091
:10125C000FF9B9E7ACEB0E033B64002BE4D006FBB3
:10126C000111FA6B7B6C72447344FA637B64214406
:10127C0001F0FEF81FE5282202FB0642B0F85010E0
:10128C004FEAC30A89B217F0400E126C00F5806C5D
:10129C00514407F4804700F0E98002313CF811C05A
:1012AC002821CCF3090C944528BF002201FB0641F0
:1012BC0038BFA2EB0C020A64BFB2002A5CD195F8CD
:1012CC002910002942D1B0F850101B018AB200F24B
:1012DC0004411144CA5A22F4F8421204120CCA52A4
:1012EC00CA5A92B242F40042CA5295F8292095F893
:1012FC002830AABBB0F8502000F20C4092B2104437
:10130C001A01835A23F4F8431B041B0C8352835A8F
:10131C009BB243F400438352204695F8281002F008
:10132C00DAFA002F00F0EA8095F82810226832F8DB
:10133C00213023F4E04323F070031B041B0C43F413
:10134C00404343F0800322F82130D7E00129CCD16F
:10135C00B0F850101B018EB200F204413144C3E7C7
:10136C00012AD9D1B0F8502000F20C4092B21044AE
:10137C0000221B01C252CFE76FB130F8232022F4B8
:10138C00E04222F070021204120C42F4404242F08D
:10139C00800220F82320282303FB064393F84C20DB
:1013AC00012A40F0AB805A6CD96B62449F6C5A6432
:1013BC009A6B61449742D96327D3BF1A9F6495F8FF
:1013CC00297093B2002F43D1B0F8507095F828C013
:1013DC00BFB200F2044E4FEA0C1C774402BB3CF83F
:1013EC00072022F4F8421204120C2CF807203CF8C7
:1013FC00072092B242F400422CF80720282202FB6C
:10140C000646328E01F024F878E01FB9624683F864
:10141C004C70D4E7002283F84C209A643A46CEE70D
:10142C003E2A0CD84FEA520ED20748BF0EF1010EDD
:10143C004FEA8E2E1FFA8EFE2CF807E0DEE74FEAFD
:10144C00521ED20608BF0EF1FF3E48EA8E2EF1E77F
:10145C00012FD3D1B0F8502095F828701FFA82FCD8
:10146C0000F204423F016244BB52C7E706313CF82C
:10147C0011C02821CCF3090C944588BF724601FB9E
:10148C00064198BFA2EB0C020A64BFB2002A5FD1DE
:10149C0095F82910002945D1B0F850101B018AB2DB
:1014AC0000F204411144CA5A22F4F8421204120CFC
:1014BC00CA52CA5A92B242F40042CA5295F8292032
:1014CC0095F82830002A37D1B0F8502000F20C40A3
:1014DC0092B210441A01835A23F4F8431B041B0CD8
:1014EC008352835A9BB243F400438352204695F8AF
:1014FC00281002F0F0F9002F3FF416AF95F82810E1
:10150C00226832F821309BB223F4E04323F04003ED
:10151C0083F0300343F4004343F0800322F821307E
:10152C00FFF7C9BB0129C9D1B0F850101B018EB20D
:10153C0000F204413144C0E7012AD7D1B0F8502061
:10154C0000F20C4092B2104400221B01C252CDE7B3
:10155C006FB930F8232022F4E04222F0700212041A
:10156C00120C42F4404242F0800220F8232028233F
:10157C0003FB064393F84C20012ABFD15A6CD96B5C
:10158C0062449F6C5A649A6B61449742D96325D329
:10159C00BF1A9F6495F8297093B2002F41D1B0F80F
:1015AC0050C01FFA8CF700F20C4CBC4495F8287014
:1015BC003F01F2B93CF8072022F4F8421204120C55
:1015CC002CF807203CF8072092B242F400422CF889
:1015DC000720282202FB0646728E13E71FB96246CB
:1015EC0083F84C70D6E700229A6483F84C203A4674
:1015FC00D0E73E2A0CD84FEA520ED20748BF0EF164
:10160C00010E4FEA8E2E1FFA8EFE2CF807E0E0E753
:10161C004FEA521ED20608BF0EF1FF3E48EA8E2E4C
:10162C00F1E7012FD5D1B0F85070BAB200F20C47E7
:10163C00174495F828201201BB52CAE70F8FFFFF01
:10164C000080FFFF11F0800F70B5054601F0070018
:10165C004FF028011CD0012400FB011129444C70CF
:10166C000A614A780870CB7002B1C881022B04BFA2
:10167C0000230B7195F8A832012B13D00123286895
:10168C0085F8A83200F032FC002085F8A80270BD65
:10169C00002601FB00F404F5B4712C44294484F8B1
:1016AC006961DDE70220F2E711F0800F10B501F05F
:1016BC00070204464FF0280113D0012302FB01114D
:1016CC0001444B700A7094F8A832012B13D00123FB
:1016DC00206884F8A83200F061FD002084F8A8028C
:1016EC0010BD01FB02F303F5B47101440344002067
:1016FC0083F86901E6E70220F2E770B5282400269A
:10170C0001F007014C43051985F8681104F5B47113
:10171C000144C5E95F23C5F8846185F869610068F7
:10172C0000F0A6FE304670BD282301F0070103FB34
:10173C000101D1F88401704770B501F0070528212B
:10174C0001FB05040026C4E90F23012205FB01114E
:10175C0084F84C200144A364666484F8292084F83E
:10176C002850006800F084FE304670BD38B54368E0
:10177C0001F007059D42044628D811F0800F4FF068
:10178C0028031AD005FB0333C11801234B70012326
:10179C000D708B7094F8A8229A4219D0206884F8A6
:1017AC00A83200F0DAFD25B9206804F52C7100F0A0
:1017BC004DFE002084F8A80238BD00224B4303F5EF
:1017CC00B4710344014483F86921E0E70120F3E795
:1017DC000220F1E738B5436801F00F029A42044643
:1017EC0026D811F0800F01F007024FF0280115D018
:1017FC00012302FB011101444B7000250A708D700E
:10180C0094F8A832012B15D00123206884F8A83253
:10181C0000F0C3FD284684F8A85238BD01FB02F342
:10182C0003F5B47101440344002083F86901E4E733
:10183C000120F2E70220F0E710B5282411F0800F08
:10184C001BBF01F0070101FB044104FB0100401820
:10185C0008BF00F5B47099B21AB90273C1800020A8
:10186C0010BD012283600273F9E700002DE9F341FA
:10187C00054638B30368DB0710D42B689F075ED48A
:10188C002B68190700F195802B685A0700F1BF806F
:10189C00E869002840F02C81002029E08F4C636817
:1018AC0003F00C03042B07D0636803F00C03082B24
:1018BC000AD16368DE0307D523689C03DDD56B680A
:1018CC00002BDAD1012013E06B68B3F5803F12D105
:1018DC00236843F480332360FEF7C2FE0646236878
:1018EC009803CAD4FEF7BCFE801B6428F7D90320EA
:1018FC0002B0BDE8F0819BB9236823F480332360E8
:10190C00236823F480232360FEF7AAFE064623688F
:10191C009903B2D5FEF7A4FE801B6428F7D9E6E73D
:10192C00B3F5A02F236803D143F480232360CFE7C2
:10193C0023F480332360236823F48023CBE7674CA4
:10194C00636813F00C0F07D0636803F00C03082BCB
:10195C0010D16368DA030DD423689B0702D52B6979
:10196C00012BAFD123686A6923F0F80343EAC20361
:10197C00236085E72A695A4B6AB101221A60FEF787
:10198C006FFE064623689F07ECD4FEF769FE801BAA
:10199C000228F7D9ABE71A60FEF762FE0646236809
:1019AC0098077FF56DAFFEF75BFE801B0228F6D91A
:1019BC009DE7AA69494E4B4BDAB101221A60FEF73A
:1019CC004FFE0446736A9B070DD54FF4FA52464BF3
:1019DC001B68B3FBF2F3019300BF019B5A1E0192EB
:1019EC00002BF9D150E7FEF73BFE001B0228E9D98A
:1019FC007DE71A60FEF734FE0446736A9F077FF595
:101A0C0043AFFEF72DFE001B0228F6D96FE7334CCF
:101A1C00E369D80024D40127E36943F08053E361E0
:101A2C00E36903F080530093009B304E3368D90573
:101A3C0018D5EB68012B26D1236A43F001032362EE
:101A4C00FEF70EFE41F288380646236A9B073FD507
:101A5C00002F3FF41DAFE36923F08053E36117E7D8
:101A6C000027E2E7336843F480733360FEF7F8FD38
:101A7C0080463368DA05DCD4FEF7F2FDA0EB0800F3
:101A8C006428F6D933E7ABB9236A41F2883823F0DE
:101A9C0001032362236A23F004032362FEF7E0FDB3
:101AAC000646236A9807D3D5FEF7DAFD801B40451E
:101ABC00F7D91CE7052B236A03D143F004032362F7
:101ACC00BAE723F001032362236A23F00403B6E789
:101ADC00FEF7C6FD801B4045B7D908E70010024051
:101AEC00000042428004424200000020007000408E
:101AFC002A4B5A681C4602F00C02082A3DD00023DF
:101B0C00274E022833602BD1FEF7AAFD0746236827
:101B1C0099011FD42B6AB3F5803F05D16268A9687F
:101B2C0022F400320A436260696A62680B4322F451
:101B3C0074121343636001233360FEF791FD054675
:101B4C0023689A013FF5A8AEFEF78AFD401B0228D8
:101B5C00F6D9CCE6FEF784FDC01B0228D7D9C6E621
:101B6C00FEF77EFD054623689B017FF595AEFEF7DB
:101B7C0077FD401B0228F6D9B9E601283FF4B8AE30
:101B8C005B682A6A03F4803191427FF49BAE6A6AE7
:101B9C0003F4701393423FF47FAE93E600100240BF
:101BAC0060004242022330B587B003930D460023F8
:101BBC000321CDE904314FF480730B4C0293A369DC
:101BCC000A4843F00403A361A36902A903F00403C8
:101BDC000193019BFEF7D4FE636823F0E0632B4373
:101BEC00636007B030BD00BF001002400008014028
:101BFC0030B5184B87B002AC03F1100522461868BB
:101C0C005968083303C2AB421446F7D140F20123A2
:101C1C001149ADF804304B6803F00C02082A17D1B7
:101C2C00C3F3834206A80244DB0312F8102C0CD534
:101C3C004B680A48C3F34043504306AA134413F8B5
:101C4C00143CB0FBF3F007B030BD05485043FAE745
:101C5C000248F8E7683B00080010024000127A00C6
:101C6C0000093D002DE9F0410D46044610B9012054
:101C7C00BDE8F081444A136803F007038B4228D374
:101C8C0021688E0730D4CA0743D43F4A136803F047
:101C9C000703AB4265D822683C4D12F0040F6CD19F
:101CAC00130706D56B68226923F4605343EAC20319
:101CBC006B60FFF79DFF6B68354AC3F30313D35C6E
:101CCC00D840344B1860344B1868FEF787FC002062
:101CDC00CEE7136823F007030B431360136803F07C
:101CEC0007038B42C3D1CBE7284B11F0040F1EBF67
:101CFC005A6842F4E0625A60080742BF5A6842F4DC
:101D0C0060525A605A68A06822F0F00202435A608E
:101D1C00B9E762681D4E012A33681AD113F4003FEB
:101D2C00A5D0736841F2883823F003031343736022
:101D3C00FEF796FC07467368626803F00C03B3EB7E
:101D4C00820FA2D0FEF78CFCC01B4045F3D90320B8
:101D5C008EE7022A02D113F0007FE1E713F0020FA5
:101D6C00DEE7136823F007032B431360136803F0BB
:101D7C000703AB427FF47BAF8DE76B68E16823F41C
:101D8C00E0630B436B608BE70020024000100240C5
:101D9C00583B0008000000200800002003682DE9D3
:101DAC00F341D907054620D5354CE369DA0032D426
:101DBC000127E36943F08053E361E36903F0805347
:101DCC000193019B2F4E3368DB0526D5236A13F450
:101DDC00407336D1236A6A6823F440731343236239
:101DEC001FB1E36923F08053E3612868830706D5AC
:101DFC002349AB684A6822F440421A434A6010F007
:101E0C0010001BD01E4AE9685368002023F480039D
:101E1C000B43536012E00027D4E7336843F480731C
:101E2C003360FEF71DFC80463368D805CED4FEF730
:101E3C0017FCA0EB08006428F6D9032002B0BDE81B
:101E4C00F0816A6802F440729A42C3D001200E4AB3
:101E5C00236A1060002023F4407110602162D907BE
:101E6C00B8D5FEF7FDFB41F288380646236A9A077F
:101E7C00B0D4FEF7F5FB801B4045F7D9DDE700BF7A
:101E8C0000100240007000404004424284B001A89F
:101E9C0080E80E0004B00020704703464FF43F4228
:101EAC000020A3F84400A3F840207047B0F840305D
:101EBC0023F47C535B045B0CA0F84030002070478B
:101ECC000020704784B010B5044603A880E80E00CB
:101EDC0000200123A4F84030A4F84000A4F84400EA
:101EEC00A4F85000BDE8104004B07047F0B50D7870
:101EFC00034630F82520C87822F4EC4222F0700218
:101F0C001204120C03284FD8DFE800F0024B4947AB
:101F1C0042F4007248F28004224323F825200E7804
:101F2C009B4D33F8262092B22A403243224323F8A9
:101F3C0026200C7B0A78002C40F08980CC884E78C7
:101F4C006408640003EB021286B3B3F85060B6B2B7
:101F5C003244A2F800440C7833F82420520609D5F8
:101F6C0033F8242092B22A4042F4004242F0C002DC
:101F7C0023F82420CA780C78012A33F824208549C8
:101F8C0092B202EA010218BF82F0200242F400422F
:101F9C0042F0800223F82420F0BD42F4C0620020FD
:101FAC00B8E742F48062FAE70120B3E7B3F8505087
:101FBC000E69ADB22A44A2F808440A78B3F850402E
:101FCC0003EB0212A4B202F20C427EBB155B25F4A9
:101FDC00F8452D042D0C1553155B6FEA45456FEA3A
:101FEC005545ADB215530C7833F8242055040DD556
:101FFC0033F8242022F4E04222F070021204120C76
:10200C0042F4404242F0800223F82420097833F84D
:10201C00212022F4804222F070021204120C82F46D
:10202C00405242F4004242F0800271E03E2E05D84C
:10203C007508F70748BF0135AD02D2E77709564D51
:10204C00F60608BF07F1FF3745EA8725C9E733F8DD
:10205C002240A4B22C4044F4014444F0800423F800
:10206C0022400A780C89B3F8506003EB0212640822
:10207C00B6B202F58062640094530A784C89B3F8C6
:10208C00506003EB0212640802F581626400B6B280
:10209C0094534A780C78002A3DD133F8242052040A
:1020AC0009D533F8242092B22A4042F4404242F03F
:1020BC00800223F824200C7833F8242057060DD501
:1020CC0033F8242022F4E04222F070021204120CA5
:1020DC0042F4004242F0C00223F8242048F280046B
:1020EC000D7833F8252022F4804222F0700212047D
:1020FC00120C82F44052224323F82520097833F83D
:10210C00212022F4E04222F040021204120C22435D
:10211C0023F8212040E733F82420560409D533F85E
:10212C00242092B22A4042F4404242F0800223F82A
:10213C0024200C7833F8242052060DD533F82420B3
:10214C0022F4E04222F070021204120C42F400421B
:10215C0042F0C00223F82420CA780C78012A33F804
:10216C0024200C4D92B202EA050218BF82F0200224
:10217C0042F4004242F0800223F82420097833F81C
:10218C00212022F4804222F070021204120C48E743
:10219C008F8FFFFFBF8FFFFF0080FFFF10B50C7B01
:1021AC004B780A78002C3DD113B330F822305C0602
:1021BC000DD530F8223023F4E04323F070031B04D8
:1021CC001B0C43F4004343F0C00320F822300A7880
:1021DC0030F8223023F4E04323F040031B041B0CA3
:1021EC0043F4004343F0800320F82230002010BD5C
:1021FC0030F822305B040DD530F8223023F4E04364
:10220C0023F070031B041B0C43F4404343F0800386
:10221C0020F822300A7830F8223023F4804323F05F
:10222C007003DBE7002B4ED130F822305C040DD567
:10223C0030F8223023F4E04323F070031B041B0C12
:10224C0043F4404343F0800320F822300A7830F8FE
:10225C0022305B060DD530F8223023F4E04323F016
:10226C0070031B041B0C43F4004343F0C00320F821
:10227C0022300A7830F8223023F4E04323F0700344
:10228C001B041B0C43F4004343F0C00320F8223022
:10229C0048F280020C7830F8243023F4804323F089
:1022AC0070031B041B0C134320F82430097830F8FE
:1022BC00213023F4E04323F040031B041B0C134395
:1022CC0020F8213092E730F822305C040DD530F83C
:1022DC00223023F4E04323F070031B041B0C43F463
:1022EC00404343F0800320F822300A7830F8223043
:1022FC005B060DD530F8223023F4E04323F0700355
:10230C001B041B0C43F4004343F0C00320F82230A1
:10231C000A7830F8223023F4E04323F070031B04D6
:10232C001B0C43F4404343F0800320F8223048F266
:10233C0080020C7830F8243023F4E04323F040037F
:10234C001B041B0C134320F82430097830F821307F
:10235C0023F4804323F07003AFE74B780A788BB1FA
:10236C0030F8223023F4E04323F040031B041B0C11
:10237C0083F0100343F4004343F0800320F8223031
:10238C000020704730F8223023F4804323F0700390
:10239C001B041B0C83F48053ECE70B7B43BB4B7887
:1023AC000A783BB330F822305B060DD530F822307A
:1023BC0023F4E04323F070031B041B0C43F4004391
:1023CC0043F0C00320F82230CB78012B10D00A78D0
:1023DC0030F8223023F4E04323F040031B041B0CA1
:1023EC0083F0200343F4004343F0800320F82230B1
:1023FC000020704730F822305B040DD530F82230C5
:10240C0023F4E04323F070031B041B0C43F4404300
:10241C0043F0800320F822300A7830F8223023F47D
:10242C00804323F070031B041B0C83F44053D9E747
:10243C0011B98023A0F84C30002070470020704761
:10244C0000207047B0F8440080B2704700207047FD
:10245C0000EB4202013302F580625B0802EB83035E
:10246C009A4200D1704731F8020B22F8040BF7E7BF
:10247C00F8B50C46497805460129227B40F0558277
:10248C00D4F810C0A6696169664528BF664602BBD0
:10249C00B6B2E2883346FFF7DBFFB5F8502021785F
:1024AC0090B205F20442090102448E52227835F8AA
:1024BC00223023F4E04323F040031B041B0C83F075
:1024CC003003002043F4004343F0800325F822300E
:1024DC00F8BDE2782778022A236A30F8272040F0EA
:1024EC001E819C4580F0018122F4E04222F07002B2
:1024FC001204120C42F4014242F0800220F8272010
:10250C0022789B1B30F82200236210F0400FB3B2EC
:10251C00607875D0002853D1B5F8500005F20C47FF
:10252C0080B238441201002E37D1875A27F4F8476D
:10253C003F043F0C8752875A6FEA47476FEA574769
:10254C00BFB2875228466289FFF782FF226A23694D
:10255C0061699A428ABF931B0023324660783144EA
:10256C002362616193B2002840F05981B5F85000A4
:10257C00267880B205F20447360138445ABB325AE9
:10258C0022F4F8421204120C3252325A6FEA4242CE
:10259C006FEA524292B2325226E03E2E06D87708AB
:1025AC0016F0010F18BF0137BF02C9E74FEA561CDE
:1025BC00F706A14F08BF0CF1FF3C47EA8C27BFE799
:1025CC000128BFD1B5F85000120187B205F20C40BA
:1025DC0038448352B6E73E2A09D85708D20748BF79
:1025EC000137BF02BFB237522289284694E05709FF
:1025FC00D206914A08BF07F1FF3742EA8722C9E7A2
:10260C00002853D1B5F8500005F2044780B2384485
:10261C001201002E37D1875A27F4F8473F043F0C9C
:10262C008752875A6FEA47476FEA5747BFB28752BC
:10263C0028462289FFF70CFF226A236961699A42B6
:10264C008ABF931B00233246607831442362616158
:10265C0093B2002840F05C81B5F85000267880B227
:10266C0005F20C47360138445ABB325A22F4F84270
:10267C001204120C3252325A6FEA42426FEA524240
:10268C0092B2325226E03E2E06D8770816F0010F91
:10269C0018BF0137BF02C9E74FEA561CF706664F51
:1026AC0008BF0CF1FF3C47EA8C27BFE70128BFD1DC
:1026BC00B5F85000120187B205F204403844835239
:1026CC00B6E73E2A08D85708D20748BF0137BF02E1
:1026DC00BFB23752628988E75709D206564A08BFFB
:1026EC0007F1FF3742EA8722CAE722F4E24222F0DE
:1026FC0070021204120C42F4004242F0800220F8E4
:10270C002720B0F85020267897B200F204423A44C1
:10271C0036019BB2B3522289FFF79AFEC6E622F429
:10272C00E04222F070021204120C42F4014242F018
:10273C00800220F8272022789B1B30F8220023628D
:10274C0010F0400FB3B2607878D0002851D1B5F8B2
:10275C00500005F20C4780B238441201002E35D1DE
:10276C00875A27F4F8473F043F0C8752875A6FEA81
:10277C0047476FEA5747BFB2875262892846FFF72F
:10278C0067FE226A236961699A428ABF931B002300
:10279C003246314461612362002A3FF487AE60788F
:1027AC0093B200283BD1B5F850602778B0B23E2ADE
:1027BC0005F204464FEA0717064425D85008D207FD
:1027CC0048BF0130800280B2B8530DE73E2E06D8C8
:1027DC00770816F0010F18BF0137BF02CBE74FEA9D
:1027EC00561CF706144F08BF0CF1FF3C47EA8C2728
:1027FC00C1E70128C1D1B5F85000120187B205F22A
:10280C000C4038448352B8E75009D2060A4A08BF34
:10281C0000F1FF3042EA802292B2BA53E4E601287A
:10282C007FF4E2AEB5F85020207896B205F204425F
:10283C00000132448352D7E60080FFFF002851D1BB
:10284C00B5F8500005F2044780B238441201002E4E
:10285C0035D1875A27F4F8473F043F0C8752875AE3
:10286C006FEA47476FEA5747BFB28752228928461B
:10287C00FFF7EEFD226A236961699A428ABF931BB6
:10288C0000233246314461612362002A3FF40EAECC
:10289C00607893B200283BD1B5F850602778B0B27D
:1028AC003E2A05F20C464FEA0717064425D8500875
:1028BC00D20748BF0130800280B2B8530AE73E2EDF
:1028CC0006D8770816F0010F18BF0137BF02CBE707
:1028DC004FEA561CF706AC4F08BF0CF1FF3C47EA19
:1028EC008C27C1E70128C1D1B5F85000120187B27D
:1028FC0005F2044038448352B8E75009D206A24A84
:10290C0008BF00F1FF3042EA802292B2BA53E1E6EE
:10291C0001287FF4DFAEB5F85020207896B205F28E
:10292C000C42000132448352D4E6002A3BD1A36905
:10293C0021698B4284BF5A1A0B46B0F8501020788C
:10294C00A2618AB205F20C41000111446BB9435AE1
:10295C0023F4F8431B041B0C4352435A6FEA4343C2
:10296C006FEA53439BB2435208E03E2B12D85A08ED
:10297C00DF0748BF0132920292B24252227835F8F8
:10298C00223023F4804323F070031B041B0C83F4CC
:10299C00405396E55A09DE067B4B08BF02F1FF3225
:1029AC0043EA8223DEE7E378022B7ED1B9B9B0F893
:1029BC005020217893B200F20442206909011A4494
:1029CC00002844D18B5A23F4F8431B041B0C8B5264
:1029DC008B5A6FEA43436FEA53439BB28B52627834
:1029EC002378002A55D1B5F8501020698AB205F227
:1029FC000C4111441B0100283AD1CA5A22F4F84266
:102A0C001204120CCA52CA5A6FEA42426FEA52427C
:102A1C0092B2CA52E369002BB0D044F24003227840
:102A2C0035F8221003EA01008B4301D00028A5D110
:102A3C0035F8223023F4E04323F070031B041B0C05
:102A4C0043F4004343F0C00325F8223096E73E28B8
:102A5C0005D84308C00748BF01339B02BDE74609B0
:102A6C00494BC70608BF06F1FF3643EA8623B4E795
:102A7C003E2805D84208C00748BF01329202C7E77A
:102A8C004609414AC70608BF06F1FF3642EA8622CC
:102A9C00BEE7012ABED1B5F850201B0191B205F258
:102AAC000C420A44218AD152B4E7012B6AD1A369A2
:102ABC002269934294BF0020981AA06188BF1346E4
:102ACC00A9B9B5F8501020788AB205F2044100017A
:102ADC00114433BB425A22F4F8421204120C4252F3
:102AEC00425A6FEA42426FEA524292B242526178C3
:102AFC002278002939D1B5F85000120181B205F2C3
:102B0C000C400844F3B9835A23F4F8431B041B0C00
:102B1C008352835A6FEA43436FEA53439BB2835207
:102B2C002CE73E2B05D85A08DE0748BF013292022B
:102B3C00DBE75E09144ADF0608BF06F1FF3642EAFE
:102B4C008622D2E73E2B07D85908DE0748BF013151
:102B5C00890289B2815211E75909DB060A4B08BF79
:102B6C0001F1FF3143EA8123D8E701297FF406AF55
:102B7C00B5F85010120188B205F20C4101449BB219
:102B8C008B52FBE60120A3E40080FFFF00EB420226
:102B9C00F0B502F580625D080C4617462E460234ED
:102BAC0036B9DB0744BF32F8253001F81530F0BDDB
:102BBC0037F8040B013E80B204F8020C000A04F84A
:102BCC00010CECE7D0F8BC3210B56BB1D0F8B842C0
:102BDC0094F80002FF2807D09B68214694F8012244
:102BEC009847FF2384F80032002010BD4323038054
:102BFC00004870474400002043230380004870477E
:102C0C00880000204323038000487047D800002030
:102C1C000A23038000487047CC00002038B50446D6
:102C2C00D0F8B85200F050FFD4F8B832C5F80C0206
:102C3C004BB1D4F8BC32D5F80402DB6805F503714E
:102C4C009847002038BD0220FCE7D0F8B822F8B530
:102C5C00D2B1142707FB0107FB698BB12826D0F8EA
:102C6C00C04206FB0145AD6BB3FBF5F405FB143418
:102C7C0034B923462246FC6100F00AFF2046F8BD19
:102C8C000020C2F81402FAE70220F8E72DE9F74316
:102C9C004FF000080A78054612F060040E46D0F892
:102CAC00B8728DF80580ADF8068028D0202C42D162
:102CBC00CC884B78E4B1120611D5D0F8BC22394639
:102CCC00D2F8089018462246C84739462846F2885A
:102CDC0000F04BFC4446204603B0BDE8F08322468E
:102CEC00394687F8003287F8014200F053FCF1E7CF
:102CFC00D0F8BC22184695682246A847EBE74B78DB
:102D0C000A2B0CD00B2B12D0ABB990F89C32032BA6
:102D1C0011D102220DF1060100F027FCDBE790F83F
:102D2C009C32032B07D101220DF10501F4E790F839
:102D3C009C32032BCFD03146284600F0EFFB022407
:102D4C00C9E738B504460025812100F057FE012162
:102D5C002046E56200F052FE82212046C4F86C51F8
:102D6C0000F04CFED4F8B83225644BB1D4F8BC3228
:102D7C005B689847D4F8B80200F0AEFEC4F8B852BD
:102D8C00002038BD2DE9F041037C0446BBBB4FF459
:102D9C00007302228121012500F020FE4FF4007304
:102DAC00E562012729460222204600F017FE08237F
:102DBC0003228221C4F86C51204600F00FFE4FF420
:102DCC000770276400F084FE0546C4F8B80240B3CF
:102DDC004FF00008D4F8BC321B689847C5F8148231
:102DEC00C5F81882267C9EB94FF4007339462046EC
:102DFC00D5F8042200F05AFE3046BDE8F0810125DA
:102E0C0040230222812100F0E9FD4023E562C8E75E
:102E1C00402339462046D5F8042200F047FE4646AA
:102E2C00EAE73E46E8E719B1C0F8BC12002070474B
:102E3C0002207047D0F8B8320020C3F80812C3F84B
:102E4C0010227047D0F8B8320020C3F80412704733
:102E5C00D0F8B82210B582B1D2F81442012374B95B
:102E6C00C2F81432D2F8103281210363D2F808224E
:102E7C009BB200F00DFE204610BD0220FCE7184668
:102E8C00FAE7D0F8B82210B582B1047CD2F804224B
:102E9C0034B94FF40073012100F008FE204610BD38
:102EAC004023012100F002FE0024F7E70224F5E79D
:102EBC0008B580B1D0F8B43213B10023C0F8B432E5
:102ECC0009B1C0F8B0120123027080F89C3200F0F6
:102EDC0035FD002008BD0220FCE719B1C0F8B41282
:102EEC00002070470220704708B500F069FD0020F3
:102EFC0008BD08B5D0F8B4320BB9022008BD1B6868
:102F0C0098470028FAD0F8E708B5D0F8B4325B68D7
:102F1C009847002008BD38B500F52A7504462846A8
:102F2C0000F0E8FA012394F8A812C4F89432B4F82B
:102F3C00AE32C4F8983201F01F03012B08D0022BDB
:102F4C000BD07BB92946204600F0FCF8002038BD98
:102F5C002946204600F020FAF8E72946204600F0E2
:102F6C003FFAF3E7204601F0800100F055FDEDE754
:102F7C0070B5044616460D4639BBD0F89432032B77
:102F8C001CD1D0E9581291420BD9891A8A42C0F847
:102F9C0060118CBF8AB292B2314600F008FB284611
:102FAC0070BDD0F8B4321B6923B190F89C22032A6F
:102FBC0000D19847204600F002FBF0E7052BEED13C
:102FCC00C4F8941200F028FDE9E7D0F8B4329B69FC
:102FDC0033B190F89C22032A02D198470025DEE7F2
:102FEC000225DCE7F8B5044617460D46002947D103
:102FFC00D0F89432022B3CD1D0E908639E4214D90C
:10300C00F31A394603629AB200F0BCFA2B462A46F0
:10301C002946204600F04AFD94F8A032012B02D13B
:10302C00002384F8A0322846F8BDC269B2FBF3F63F
:10303C0003FB16265EB9934209D8D0F898329A420F
:10304C0005D20A4600F09EFAC4F89852DEE7D4F88E
:10305C00B432DB682BB194F89C22032A01D12046B0
:10306C0098478021204600F0D7FC204600F0B2FAA9
:10307C00D2E733F00403CFD1802100F0CDFCCBE7B5
:10308C00D0F8B4325B6933B190F89C22032A02D198
:10309C0098470025C7E70225C5E7002270B504460E
:1030AC00012540261146402300F098FC3346802130
:1030BC0000222046C4F85851C4F8646100F08EFC1C
:1030CC000021D4F8B832A561666284F89C52C4F829
:1030DC0094126160C4F8A41223B1D4F8B43220461F
:1030EC005B689847002070BD01740020704790F811
:1030FC009C3280F89D32042380F89C32002070476B
:10310C0090F89C32042B04BF90F89D3280F89C32CE
:10311C000020704708B590F89C22032A04D1D0F8FF
:10312C00B432DB6903B19847002008BD10B50446E2
:10313C00802100F071FC2046BDE81040002100F019
:10314C006BBC000037B50B78044603F06003202BF2
:10315C000D4612D0402B10D0002B51D14B78092B9F
:10316C004ED8DFE813F0EE000A014D0003014D00CC
:10317C00870013004D00D600A300D4F8B4322946C2
:10318C0020469B689847002003B030BD0023ADF863
:10319C0006304B881A0A013A062A31D8DFE802F0C9
:1031AC000416233030485200D0F8B0321B68207C13
:1031BC000DF106019847BDF80620002A56D0EB8881
:1031CC00002B4AD1204600F0FAF9DCE7027CD0F85B
:1031DC00B43232B99B6A0DF1060098470223437052
:1031EC00E9E7DB6AF7E7DBB2052B09D8DFE803F088
:1031FC00030C1014181CD0F8B0325B68002BD6D11D
:10320C002046FFF793FFBEE7D0F8B0329B68F5E796
:10321C00D0F8B032DB68F1E7D0F8B0321B69EDE7DB
:10322C00D0F8B0325B69E9E7D0F8B0329B69E5E7DA
:10323C00037C002BE4D1D0F8B4320DF106005B6BAB
:10324C009847B8E7037C002BDAD1D0F8B4320DF1F3
:10325C0006001B6B98470723C1E79A4228BF1A4602
:10326C0001462046ADF8062000F07FF9EB88002BD4
:10327C0089D1A7E78B88002BC2D1CB88002BBFD17B
:10328C004D887F2DBCD890F89C32032BB8D0E9B276
:10329C0080F89E1200F0EEFB204600F090F91DB174
:1032AC00022384F89C326EE70123FAE78978394DC2
:1032BC0001292970A4D890F89C32022B08D0032B3A
:1032CC0015D0FFF733FF20462978FFF71DFE5AE78C
:1032DC0000293FF477AF01210323416080F89C3231
:1032EC002046FFF706FE02287FF46CAF88E731B961
:1032FC000223416080F89C32FFF706FE62E74168CA
:10330C0001293FF45FAFC9B2FFF7FEFD2978616078
:10331C00E6E7CA88012A7FF473AF90F89C32022B3F
:10332C000AD8002B3FF46CAF0146002341F8083F4C
:10333C00204600F01AF926E7032B7FF461AF011D3C
:10334C00F6E790F89C32013B022B3FF659AFCB8845
:10335C00022B7FF455AF0123C360D0F8A4320BB11C
:10336C000323C360022204F10C01E1E74B88012B1B
:10337C007FF409AFC4F8A43224E790F89C32013BE7
:10338C00022B3FF63DAF4B88012B7FF4FCAE0023A4
:10339C00F0E700BF9801002038B50B78044603F025
:1033AC006002402A0D4601D05B0615D494F89C327D
:1033BC00013B022B10D82B79012B0DD8D4F8B43249
:1033CC0029469B6820469847EB881BB910B92046C4
:1033DC0000F0F5F8002038BD2046FFF7A7FEF9E70E
:1033EC0038B50A78044602F06002202A0B4627D032
:1033FC00402A25D092BB5A788D88012A09793DD074
:10340C00032A25D052BB90F89C32022B4DD0032BB3
:10341C0024D1142201F00F0315F0800F02FB0303DB
:10342C0054D09B69D3B1142301F07F0505FB033302
:10343C00C51811F07F0355D12B600222294641E0BB
:10344C00D4F8B4221946204692689047002038BD23
:10345C0090F89C22022A1FD0032A03D02046FFF7A3
:10346C0065FEF3E75A882AB94A0603D0DB880BB904
:10347C0000F0D2FA204600F0A2F8E7E790F89C2280
:10348C00022A09D0032AE9D15B88002BDED14D0634
:10349C00F0D000F0CFFAEDE74B06DFD000F0BCFA2D
:1034AC008021204600F0B8FAD0E74A06D6D12B0688
:1034BC004FF000034FF002024CBF00F1140100F575
:1034CC00AA710B60204600F050F8BFE7D3F85831D2
:1034DC00002BC3D0142301F07F0503FB050505F574
:1034EC00AA75A6E7204600F0B3FA08B10123A3E7BA
:1034FC002860A2E70B7803704B784370CA788B78FE
:10350C0003EB022343804A790B7903EB022383807C
:10351C00CA798B7903EB0223C380704710B504463C
:10352C00802100F079FA2046BDE81040002100F01F
:10353C0073BA30B588B1002501382B460135445D8E
:10354C00002CFAD1DBB201335B0013800B70032328
:10355C004B70022310F8015F05B930BD5A1CCD54D5
:10356C00D2B20233DBB28C54F4E71346022210B50C
:10357C00C0E90733C0F894220A46002100F088FA0B
:10358C00002010BD08B513460A46002100F080FA51
:10359C00002008BD1346032210B5C0E95733C0F80C
:1035AC0094220A46002100F081FA002010BD08B5D3
:1035BC0013460A46002100F079FA002008BD08B530
:1035CC000423C0F8943200231A46194600F060FA1E
:1035DC00002008BD08B50523C0F8943200231A4614
:1035EC00194600F063FA002008BD000008B500225F
:1035FC000E490F48FFF75CFC08B1FCF765FF0D495D
:10360C000B48FFF76AFC08B1FCF75EFF0A49084853
:10361C00FFF709FC08B1FCF757FF0548FFF764FCFE
:10362C0018B1BDE80840FCF74FBF08BD2C010020C5
:10363C00F00300200C0000201C010020002070472B
:10364C0010B5064C002220460549FFF7F3FB204637
:10365C000449FFF7F7FB002010BD00BFF00300206A
:10366C00C4060020B4060020202803D0212811D045
:10367C00002070470A780F4B1A704A785A708A7873
:10368C009A70CA78DA700A791A714A795A718A79F9
:10369C009A71EDE7074B1A780A705A784A709A7843
:1036AC008A70DA78CA701A790A715A794A719B79D8
:1036BC008B71DDE7D406002010B5094C0A46D4F80E
:1036CC00B832D3F8143243B901462046FFF7B2FBA7
:1036DC002046BDE81040FFF7BBBB012010BD00BF6A
:1036EC00F003002013B5044699B10B688BB1037835
:1036FC004BB940680093FCF77DFD019008216846AA
:10370C00FFF7DAFF05E0012B0DD100214068FCF733
:10371C0019FD21461948FFF795FB1848FFF7B1FB37
:10372C00002002B010BD022B06D14068003818BF33
:10373C000120FCF7B9FDECE7032B06D1002310495F
:10374C0040680093FCF7FEFCD7E7042B05D100235F
:10375C0000790093FCF7A4FDCFE7052B04D10021E1
:10376C000079FCF74BFDD4E7062BD2D1002304499A
:10377C0000790093FCF742FDBFE700BFF003002087
:10378C00CDAB3412122301480B8070474801002046
:10379C00042301480B8070475C010020002370B5A6
:1037AC001E464D1C040FB0F1204F34BF303437345B
:1037BC0001F8134005F813600133DCB2A2424FEA62
:1037CC000010EFD870BD00001A2310B50B80094B08
:1037DC00186808331B68C0180AD0074B08221C68ED
:1037EC000649FFF7DBFF042220460549FFF7D6FF09
:1037FC00044810BDE8F7FF1FECF7FF1F6201002023
:10380C00720100206001002010B5044C0A460448E7
:10381C002146FFF78EFE204610BD00BFDC060020BF
:10382C00793B000810B5044C0A4604482146FFF7C2
:10383C0080FE204610BD00BFDC0600208C3B00083B
:10384C0010B5044C0A4604482146FFF772FE204688
:10385C0010BD00BFDC060020A23B000810B5044CD4
:10386C000A4604482146FFF764FE204610BD00BFFF
:10387C00DC060020AD3B000807B50E4B02689A42EF
:10388C0015D103F5DA33DA69142042F40002DA6157
:10389C000022DB69114603F400030193019BFDF741
:1038AC0019F8142003B05DF804EBFDF745B803B02C
:1038BC005DF804FB005C004000F52C71D0F8E802C8
:1038CC00FFF729BB282303FB0103D0F8E802D3F848
:1038DC007C21FFF74DBB282303FB0103D0F8E80242
:1038EC00DA6BFFF77FBBD0F8E802FFF713BC8368F5
:1038FC0010B5022B044601D0FCF7E6FDD4F8E80223
:10390C000121FFF7F1FBD4F8E802BDE81040FFF706
:10391C00C4BB000010B50446D0F8E802FFF7E7FB83
:10392C00A36923B1024A136943F00603136110BD66
:10393C0000ED00E0D0F8E802FFF7E2BB082310B579
:10394C001D4A04461D48C0E900230223836000235E
:10395C00C0F8E842C4F8C002C0E906330362FDF7C0
:10396C00F6F808B1FCF7B0FD002218231146D4F884
:10397C00C002FDF761FF582300228021D4F8C00259
:10398C00FDF75AFFC02300228121D4F8C002FDF7B5
:10399C0053FF4FF4887300220121D4F8C002FDF7C5
:1039AC004BFF4FF4807300228221D4F8C002FDF744
:1039BC0043FF002010BD00BF005C0040DC0800206D
:1039CC0008B5D0F8C002FDF73BF9032896BF024BAF
:1039DC000220185C08BD00BFBB3B000810B51446A4
:1039EC00D0F8C0021A462346FDF72CFE032896BFDA
:1039FC00014B0220185C10BDBB3B000808B5D0F889
:103A0C00C002FDF751FE032896BF024B0220185C42
:103A1C0008BD00BFBB3B000808B5D0F8C002FDF7DD
:103A2C00A5FE032896BF024B0220185C08BD00BF00
:103A3C00BB3B000808B5D0F8C002FDF7CBFE03284D
:103A4C0096BF024B0220185C08BD00BFBB3B0008B0
:103A5C00282311F0800FD0F8C0221BBF01F07F018A
:103A6C0001FB033103FB0121891814BF887891F8FD
:103A7C006A01704708B5D0F8C002FDF7FAF80328C0
:103A8C0096BF024B0220185C08BD00BFBB3B000870
:103A9C0008B5D0F8C002FDF74FFE032896BF024BC5
:103AAC000220185C08BD00BFBB3B000808B5D0F86D
:103ABC00C002FDF722FE032896BF024B0220185CC1
:103ACC0008BD00BFBB3B0008D0F8C002FDF72CBE00
:103ADC00004870479C0100207047704770B5002665
:103AEC000C4D0D4C641BA410A64209D100F022F819
:103AFC0000260A4D0A4C641BA410A64205D170BDC9
:103B0C0055F8043B98470136EEE755F8043B9847C7
:103B1C000136F2E7C03B0008C03B0008C03B000880
:103B2C00C43B000803460244934200D1704703F89B
:103B3C00011BF9E7F8B500BFF8BC08BC9E467047FE
:0C3B4C00F8B500BFF8BC08BC9E467047EE
:103B58000000000000000000010203040607080935
:103B680002030405060708090A0B0C0D0E0F1010B6
:103B78000053544D6963726F656C656374726F6E40
:103B88006963730053544D333220566972747561FA
:103B98006C20436F6D506F72740043444320436F31
:103BA8006E6669670043444320496E7465726661B6
:083BB800636500000201020038
:043BC00031010008C7
:043BC4000D010008E7
:103BC8000024F4000100000010000000912D0008FE
:103BD8004F2D0008992C000800000000D12B000888
:103BE800572C0008292C00080000000000000000E5
:103BF80000000000052C0008F92B0008112C000813
:103C08001D2C000809024300020100C0320904000B
:103C18000001020201000524001001052401000131
:103C28000424020205240600010705820308001087
:103C380009040100020A0000000705010240000013
:103C4800070581024000000009024300020100C08C
:103C580032090400000102020100052400100105D8
:103C6800240100010424020205240600010705823C
:103C78000308001009040100020A000000070501FA
:103C88000200020007058102000200000A06000285
:103C9800000000400100000009074300020104C0C1
:103CA8003209040000010202010005240010010588
:103CB80024010001042402020524060001070582EC
:103CC8000308001009040100020A000000070501AA
:103CD8000240000007058102400000004D36000840
:103CE8004936000875360008F13600089137000893
:103CF8009D3700081538000831380008D537000806
:103D08004D3800086938000812010002020200401C
:103D18008304405700020102030100000403090460
:103D28001A0300000000000000000000000000006E
:0C3D38000000000000000000000000007F
:040000050800059D4D
:00000001FF
